{
  "abi": [
    {
      "inputs": [],
      "stateMutability": "nonpayable",
      "type": "constructor"
    },
    {
      "inputs": [
        {
          "internalType": "int256",
          "name": "val",
          "type": "int256"
        }
      ],
      "name": "getETHPrice",
      "outputs": [
        {
          "internalType": "int256",
          "name": "",
          "type": "int256"
        }
      ],
      "stateMutability": "view",
      "type": "function"
    }
  ],
  "bytecode": {
    "object": "0x6080806040523461003c57600080546001600160a01b03191673694aa1769357215de4fac081bf1f309adc32530617905561019b90816100428239f35b600080fdfe60808060405260048036101561001457600080fd5b600090813560e01c63215b457f1461002b57600080fd5b34610148576020366003190112610148578154633fabe5a360e21b84528135939060a0908290849082906001600160a01b03165afa90811561013d5783916100c5575b5080840293838212600160ff1b8214166100b257818505149015171561009f576020836305f5e10060405191058152f35b634e487b7160e01b825260119052602490fd5b634e487b7160e01b845260118352602484fd5b905060a03d8111610136575b601f8101601f191682016001600160401b038111838210176101235760a09183916040528101031261011f576101068161014c565b5061011860806020830151920161014c565b503861006e565b8280fd5b634e487b7160e01b855260418452602485fd5b503d6100d1565b6040513d85823e3d90fd5b5080fd5b51906001600160501b038216820361016057565b600080fdfea2646970667358221220d2ca1e2087ac51a216236852fecaca00dd90b3aec6a2b94df90cec2929e39e2864736f6c63430008150033",
    "linkReferences": {}
  },
  "methodIdentifiers": {
    "getETHPrice(int256)": "215b457f"
  },
  "id": 16
}