{
  "abi": [
    {
      "inputs": [
        {
          "internalType": "address",
          "name": "_currencyPriceAddress",
          "type": "address"
        }
      ],
      "stateMutability": "nonpayable",
      "type": "constructor"
    },
    {
      "inputs": [],
      "name": "calculateAmountToDeposit",
      "outputs": [
        {
          "internalType": "uint256",
          "name": "",
          "type": "uint256"
        }
      ],
      "stateMutability": "view",
      "type": "function"
    },
    {
      "inputs": [],
      "name": "checkPosition",
      "outputs": [
        {
          "internalType": "bool",
          "name": "",
          "type": "bool"
        }
      ],
      "stateMutability": "view",
      "type": "function"
    },
    {
      "inputs": [
        {
          "internalType": "uint256",
          "name": "amount",
          "type": "uint256"
        }
      ],
      "name": "deposit",
      "outputs": [],
      "stateMutability": "nonpayable",
      "type": "function"
    },
    {
      "inputs": [],
      "name": "getLiquidityPosition",
      "outputs": [
        {
          "internalType": "uint256",
          "name": "",
          "type": "uint256"
        }
      ],
      "stateMutability": "view",
      "type": "function"
    },
    {
      "inputs": [],
      "name": "lastPriceSnapshot",
      "outputs": [
        {
          "internalType": "int256",
          "name": "",
          "type": "int256"
        }
      ],
      "stateMutability": "view",
      "type": "function"
    },
    {
      "inputs": [],
      "name": "poolAddress",
      "outputs": [
        {
          "internalType": "address",
          "name": "",
          "type": "address"
        }
      ],
      "stateMutability": "view",
      "type": "function"
    },
    {
      "inputs": [
        {
          "internalType": "address",
          "name": "_poolAddress",
          "type": "address"
        }
      ],
      "name": "poolReceiver",
      "outputs": [],
      "stateMutability": "nonpayable",
      "type": "function"
    },
    {
      "inputs": [],
      "name": "requireRebalancing",
      "outputs": [
        {
          "internalType": "bool",
          "name": "",
          "type": "bool"
        }
      ],
      "stateMutability": "view",
      "type": "function"
    }
  ],
  "bytecode": {
    "object": "0x60803461007457601f61045c38819003918201601f19168301916001600160401b038311848410176100795780849260209460405283398101031261007457516001600160a01b0381169081900361007457600080546001600160a01b0319169190911790556040516103cc90816100908239f35b600080fd5b634e487b7160e01b600052604160045260246000fdfe6040608081526004908136101561001557600080fd5b600091823560e01c9081630be4fb22146101c65781631755ff211461019e5781632b6094ba14610160578163605edcb21461016557816386ff14bb14610160578163a7885e3214610145578163b6b55f251461009c575063e25736481461007b57600080fd5b346100985781600319360112610098576020906003549051908152f35b5080fd5b9190503461012c57602091826003193601126101415760015481548351636e553f6560e01b81528335938101939093526001600160a01b0390811660248401528491839160449183918991165af180156101375790839161010a575b50506007600554923385525282205580f35b813d8311610130575b61011d818361020d565b8101031261012c5781386100f8565b8280fd5b503d610113565b82513d86823e3d90fd5b8380fd5b50503461009857816003193601126100985751908152602090f35b6101ec565b8390346100985760203660031901126100985780356001600160a01b0381169081900361012c5781546001600160a01b03191617905580f35b90503461012c578260031936011261012c575490516001600160a01b03909116815260209150f35b5050346100985781600319360112610098576020906101e3610246565b90519015158152f35b3461020857600036600319011261020857602060405160008152f35b600080fd5b601f909101601f19168101906001600160401b0382119082101761023057604052565b634e487b7160e01b600052604160045260246000fd5b6000805460405163215b457f60e01b815260016004820152906020908190839060249082906001600160a01b03165afa91821561038b57839261035c575b5082821315610319575060648102908082056064149015171561030557641ca35f0e00900560631981019081136001166103055760025490818112918215926102d8575b5050156102d55750600190565b90565b909150600160ff1b81146102f1578203121538806102c8565b634e487b7160e01b83526011600452602483fd5b634e487b7160e01b82526011600452602482fd5b6064906040519062461bcd60e51b825280600483015260248201527f5072696365206d7573742062652067726561746572207468616e207a65726f2e6044820152fd5b9080925081813d8311610384575b610374818361020d565b8101031261012c57519038610284565b503d61036a565b6040513d85823e3d90fdfea264697066735822122039f838ede3bd48b391057126961ae1727dc99e8e171b1864727b0ed27bf8550764736f6c63430008150033",
    "linkReferences": {}
  },
  "methodIdentifiers": {
    "calculateAmountToDeposit()": "86ff14bb",
    "checkPosition()": "a7885e32",
    "deposit(uint256)": "b6b55f25",
    "getLiquidityPosition()": "2b6094ba",
    "lastPriceSnapshot()": "e2573648",
    "poolAddress()": "1755ff21",
    "poolReceiver(address)": "605edcb2",
    "requireRebalancing()": "0be4fb22"
  },
  "id": 17
}