{
  "abi": [
    {
      "inputs": [],
      "stateMutability": "nonpayable",
      "type": "constructor"
    },
    {
      "inputs": [],
      "name": "Line",
      "outputs": [
        {
          "internalType": "uint256",
          "name": "",
          "type": "uint256"
        }
      ],
      "stateMutability": "view",
      "type": "function"
    },
    {
      "inputs": [],
      "name": "cage",
      "outputs": [],
      "stateMutability": "nonpayable",
      "type": "function"
    },
    {
      "inputs": [
        {
          "internalType": "address",
          "name": "",
          "type": "address"
        },
        {
          "internalType": "address",
          "name": "",
          "type": "address"
        }
      ],
      "name": "can",
      "outputs": [
        {
          "internalType": "uint256",
          "name": "",
          "type": "uint256"
        }
      ],
      "stateMutability": "view",
      "type": "function"
    },
    {
      "inputs": [
        {
          "internalType": "address",
          "name": "",
          "type": "address"
        }
      ],
      "name": "dai",
      "outputs": [
        {
          "internalType": "uint256",
          "name": "",
          "type": "uint256"
        }
      ],
      "stateMutability": "view",
      "type": "function"
    },
    {
      "inputs": [],
      "name": "debt",
      "outputs": [
        {
          "internalType": "uint256",
          "name": "",
          "type": "uint256"
        }
      ],
      "stateMutability": "view",
      "type": "function"
    },
    {
      "inputs": [
        {
          "internalType": "address",
          "name": "usr",
          "type": "address"
        }
      ],
      "name": "deny",
      "outputs": [],
      "stateMutability": "nonpayable",
      "type": "function"
    },
    {
      "inputs": [
        {
          "internalType": "bytes32",
          "name": "ilk",
          "type": "bytes32"
        },
        {
          "internalType": "bytes32",
          "name": "what",
          "type": "bytes32"
        },
        {
          "internalType": "uint256",
          "name": "data",
          "type": "uint256"
        }
      ],
      "name": "file",
      "outputs": [],
      "stateMutability": "nonpayable",
      "type": "function"
    },
    {
      "inputs": [
        {
          "internalType": "bytes32",
          "name": "what",
          "type": "bytes32"
        },
        {
          "internalType": "uint256",
          "name": "data",
          "type": "uint256"
        }
      ],
      "name": "file",
      "outputs": [],
      "stateMutability": "nonpayable",
      "type": "function"
    },
    {
      "inputs": [
        {
          "internalType": "bytes32",
          "name": "ilk",
          "type": "bytes32"
        },
        {
          "internalType": "address",
          "name": "src",
          "type": "address"
        },
        {
          "internalType": "address",
          "name": "dst",
          "type": "address"
        },
        {
          "internalType": "uint256",
          "name": "wad",
          "type": "uint256"
        }
      ],
      "name": "flux",
      "outputs": [],
      "stateMutability": "nonpayable",
      "type": "function"
    },
    {
      "inputs": [
        {
          "internalType": "bytes32",
          "name": "i",
          "type": "bytes32"
        },
        {
          "internalType": "address",
          "name": "u",
          "type": "address"
        },
        {
          "internalType": "int256",
          "name": "rate",
          "type": "int256"
        }
      ],
      "name": "fold",
      "outputs": [],
      "stateMutability": "nonpayable",
      "type": "function"
    },
    {
      "inputs": [
        {
          "internalType": "bytes32",
          "name": "ilk",
          "type": "bytes32"
        },
        {
          "internalType": "address",
          "name": "src",
          "type": "address"
        },
        {
          "internalType": "address",
          "name": "dst",
          "type": "address"
        },
        {
          "internalType": "int256",
          "name": "dink",
          "type": "int256"
        },
        {
          "internalType": "int256",
          "name": "dart",
          "type": "int256"
        }
      ],
      "name": "fork",
      "outputs": [],
      "stateMutability": "nonpayable",
      "type": "function"
    },
    {
      "inputs": [
        {
          "internalType": "bytes32",
          "name": "i",
          "type": "bytes32"
        },
        {
          "internalType": "address",
          "name": "u",
          "type": "address"
        },
        {
          "internalType": "address",
          "name": "v",
          "type": "address"
        },
        {
          "internalType": "address",
          "name": "w",
          "type": "address"
        },
        {
          "internalType": "int256",
          "name": "dink",
          "type": "int256"
        },
        {
          "internalType": "int256",
          "name": "dart",
          "type": "int256"
        }
      ],
      "name": "frob",
      "outputs": [],
      "stateMutability": "nonpayable",
      "type": "function"
    },
    {
      "inputs": [
        {
          "internalType": "bytes32",
          "name": "",
          "type": "bytes32"
        },
        {
          "internalType": "address",
          "name": "",
          "type": "address"
        }
      ],
      "name": "gem",
      "outputs": [
        {
          "internalType": "uint256",
          "name": "",
          "type": "uint256"
        }
      ],
      "stateMutability": "view",
      "type": "function"
    },
    {
      "inputs": [
        {
          "internalType": "bytes32",
          "name": "i",
          "type": "bytes32"
        },
        {
          "internalType": "address",
          "name": "u",
          "type": "address"
        },
        {
          "internalType": "address",
          "name": "v",
          "type": "address"
        },
        {
          "internalType": "address",
          "name": "w",
          "type": "address"
        },
        {
          "internalType": "int256",
          "name": "dink",
          "type": "int256"
        },
        {
          "internalType": "int256",
          "name": "dart",
          "type": "int256"
        }
      ],
      "name": "grab",
      "outputs": [],
      "stateMutability": "nonpayable",
      "type": "function"
    },
    {
      "inputs": [
        {
          "internalType": "uint256",
          "name": "rad",
          "type": "uint256"
        }
      ],
      "name": "heal",
      "outputs": [],
      "stateMutability": "nonpayable",
      "type": "function"
    },
    {
      "inputs": [
        {
          "internalType": "address",
          "name": "usr",
          "type": "address"
        }
      ],
      "name": "hope",
      "outputs": [],
      "stateMutability": "nonpayable",
      "type": "function"
    },
    {
      "inputs": [
        {
          "internalType": "bytes32",
          "name": "",
          "type": "bytes32"
        }
      ],
      "name": "ilks",
      "outputs": [
        {
          "internalType": "uint256",
          "name": "Art",
          "type": "uint256"
        },
        {
          "internalType": "uint256",
          "name": "rate",
          "type": "uint256"
        },
        {
          "internalType": "uint256",
          "name": "spot",
          "type": "uint256"
        },
        {
          "internalType": "uint256",
          "name": "line",
          "type": "uint256"
        },
        {
          "internalType": "uint256",
          "name": "dust",
          "type": "uint256"
        }
      ],
      "stateMutability": "view",
      "type": "function"
    },
    {
      "inputs": [
        {
          "internalType": "bytes32",
          "name": "ilk",
          "type": "bytes32"
        }
      ],
      "name": "init",
      "outputs": [],
      "stateMutability": "nonpayable",
      "type": "function"
    },
    {
      "inputs": [],
      "name": "live",
      "outputs": [
        {
          "internalType": "uint256",
          "name": "",
          "type": "uint256"
        }
      ],
      "stateMutability": "view",
      "type": "function"
    },
    {
      "inputs": [
        {
          "internalType": "address",
          "name": "src",
          "type": "address"
        },
        {
          "internalType": "address",
          "name": "dst",
          "type": "address"
        },
        {
          "internalType": "uint256",
          "name": "rad",
          "type": "uint256"
        }
      ],
      "name": "move",
      "outputs": [],
      "stateMutability": "nonpayable",
      "type": "function"
    },
    {
      "inputs": [
        {
          "internalType": "address",
          "name": "usr",
          "type": "address"
        }
      ],
      "name": "nope",
      "outputs": [],
      "stateMutability": "nonpayable",
      "type": "function"
    },
    {
      "inputs": [
        {
          "internalType": "address",
          "name": "usr",
          "type": "address"
        }
      ],
      "name": "rely",
      "outputs": [],
      "stateMutability": "nonpayable",
      "type": "function"
    },
    {
      "inputs": [
        {
          "internalType": "address",
          "name": "",
          "type": "address"
        }
      ],
      "name": "sin",
      "outputs": [
        {
          "internalType": "uint256",
          "name": "",
          "type": "uint256"
        }
      ],
      "stateMutability": "view",
      "type": "function"
    },
    {
      "inputs": [
        {
          "internalType": "bytes32",
          "name": "ilk",
          "type": "bytes32"
        },
        {
          "internalType": "address",
          "name": "usr",
          "type": "address"
        },
        {
          "internalType": "int256",
          "name": "wad",
          "type": "int256"
        }
      ],
      "name": "slip",
      "outputs": [],
      "stateMutability": "nonpayable",
      "type": "function"
    },
    {
      "inputs": [
        {
          "internalType": "address",
          "name": "u",
          "type": "address"
        },
        {
          "internalType": "address",
          "name": "v",
          "type": "address"
        },
        {
          "internalType": "uint256",
          "name": "rad",
          "type": "uint256"
        }
      ],
      "name": "suck",
      "outputs": [],
      "stateMutability": "nonpayable",
      "type": "function"
    },
    {
      "inputs": [
        {
          "internalType": "bytes32",
          "name": "",
          "type": "bytes32"
        },
        {
          "internalType": "address",
          "name": "",
          "type": "address"
        }
      ],
      "name": "urns",
      "outputs": [
        {
          "internalType": "uint256",
          "name": "ink",
          "type": "uint256"
        },
        {
          "internalType": "uint256",
          "name": "art",
          "type": "uint256"
        }
      ],
      "stateMutability": "view",
      "type": "function"
    },
    {
      "inputs": [],
      "name": "vice",
      "outputs": [
        {
          "internalType": "uint256",
          "name": "",
          "type": "uint256"
        }
      ],
      "stateMutability": "view",
      "type": "function"
    },
    {
      "inputs": [
        {
          "internalType": "address",
          "name": "",
          "type": "address"
        }
      ],
      "name": "wards",
      "outputs": [
        {
          "internalType": "uint256",
          "name": "",
          "type": "uint256"
        }
      ],
      "stateMutability": "view",
      "type": "function"
    }
  ],
  "bytecode": {
    "object": "0x608060405234801561001057600080fd5b50336000908152602081905260409020600190819055600a55611aeb806100386000396000f3fe608060405234801561001057600080fd5b50600436106101545760003560e01c80630dca59c1146101595780631a0b287e14610173578063214414d51461019e5780632424be5c146101ca57806329ae81141461020f5780632d61a355146102325780633b6631951461023a5780634538c4eb146102575780636111be2e1461028557806365fae35e146102c157806369245009146102e75780636c25b346146102ef57806376088703146103155780637bab3f401461035d5780637cdd3fde146103a5578063870c616d146103d7578063957aa58c146104195780639c52a7f114610421578063a3b22fc414610447578063b65337df1461046d578063babe8a3f1461049f578063bb35783b146104a7578063bf353dbb146104dd578063d9638d3614610503578063dc4d20fa1461054b578063f059212a14610571578063f24e23eb14610597578063f37ac61c146105cd575b600080fd5b6101616105ea565b60408051918252519081900360200190f35b61019c6004803603606081101561018957600080fd5b50803590602081013590604001356105f0565b005b610161600480360360408110156101b457600080fd5b50803590602001356001600160a01b0316610751565b6101f6600480360360408110156101e057600080fd5b50803590602001356001600160a01b031661076e565b6040805192835260208301919091528051918290030190f35b61019c6004803603604081101561022557600080fd5b5080359060200135610792565b61016161083f565b61019c6004803603602081101561025057600080fd5b5035610845565b6101616004803603604081101561026d57600080fd5b506001600160a01b0381358116916020013516610914565b61019c6004803603608081101561029b57600080fd5b508035906001600160a01b03602082013581169160408101359091169060600135610931565b61019c600480360360208110156102d757600080fd5b50356001600160a01b0316610a0c565b61019c610ac1565b6101616004803603602081101561030557600080fd5b50356001600160a01b0316610b1a565b61019c600480360360c081101561032b57600080fd5b508035906001600160a01b03602082013581169160408101358216916060820135169060808101359060a00135610b2c565b61019c600480360360c081101561037357600080fd5b508035906001600160a01b03602082013581169160408101358216916060820135169060808101359060a00135610ff9565b61019c600480360360608110156103bb57600080fd5b508035906001600160a01b03602082013516906040013561115b565b61019c600480360360a08110156103ed57600080fd5b508035906001600160a01b03602082013581169160408101359091169060608101359060800135611203565b610161611479565b61019c6004803603602081101561043757600080fd5b50356001600160a01b031661147f565b61019c6004803603602081101561045d57600080fd5b50356001600160a01b0316611531565b61019c6004803603606081101561048357600080fd5b508035906001600160a01b03602082013516906040013561155a565b610161611679565b61019c600480360360608110156104bd57600080fd5b506001600160a01b0381358116916020810135909116906040013561167f565b610161600480360360208110156104f357600080fd5b50356001600160a01b031661173f565b6105206004803603602081101561051957600080fd5b5035611751565b6040805195865260208601949094528484019290925260608401526080830152519081900360a00190f35b61019c6004803603602081101561056157600080fd5b50356001600160a01b0316611780565b6101616004803603602081101561058757600080fd5b50356001600160a01b03166117a9565b61019c600480360360608110156105ad57600080fd5b506001600160a01b038135811691602081013590911690604001356117bb565b61019c600480360360208110156105e357600080fd5b50356118a4565b60075481565b33600090815260208190526040902054600114610642576040805162461bcd60e51b81526020600482015260126024820152600080516020611a96833981519152604482015290519081900360640190fd5b600a54600114610688576040805162461bcd60e51b815260206004820152600c60248201526b5661742f6e6f742d6c69766560a01b604482015290519081900360640190fd5b81631cdc1bdd60e21b14156106b15760008381526002602081905260409091200181905561074c565b81636c696e6560e01b14156106d957600083815260026020526040902060030181905561074c565b8163191d5cdd60e21b141561070157600083815260026020526040902060040181905561074c565b6040805162461bcd60e51b815260206004820152601b60248201527a5661742f66696c652d756e7265636f676e697a65642d706172616d60281b604482015290519081900360640190fd5b505050565b600460209081526000928352604080842090915290825290205481565b60036020908152600092835260408084209091529082529020805460019091015482565b336000908152602081905260409020546001146107e4576040805162461bcd60e51b81526020600482015260126024820152600080516020611a96833981519152604482015290519081900360640190fd5b600a5460011461082a576040805162461bcd60e51b815260206004820152600c60248201526b5661742f6e6f742d6c69766560a01b604482015290519081900360640190fd5b81634c696e6560e01b14156107015760095550565b60085481565b33600090815260208190526040902054600114610897576040805162461bcd60e51b81526020600482015260126024820152600080516020611a96833981519152604482015290519081900360640190fd5b600081815260026020526040902060010154156108f2576040805162461bcd60e51b815260206004820152601460248201527315985d0bda5b1acb585b1c9958591e4b5a5b9a5d60621b604482015290519081900360640190fd5b6000908152600260205260409020676765c793fa10079d601b1b600190910155565b600160209081526000928352604080842090915290825290205481565b61093b833361192a565b61097e576040805162461bcd60e51b815260206004820152600f60248201526e15985d0bdb9bdd0b585b1b1bddd959608a1b604482015290519081900360640190fd5b60008481526004602090815260408083206001600160a01b03871684529091529020546109ab908261196a565b60008581526004602090815260408083206001600160a01b0388811685529252808320939093558416815220546109e2908261197a565b60009485526004602090815260408087206001600160a01b03909516875293905291909320555050565b33600090815260208190526040902054600114610a5e576040805162461bcd60e51b81526020600482015260126024820152600080516020611a96833981519152604482015290519081900360640190fd5b600a54600114610aa4576040805162461bcd60e51b815260206004820152600c60248201526b5661742f6e6f742d6c69766560a01b604482015290519081900360640190fd5b6001600160a01b0316600090815260208190526040902060019055565b33600090815260208190526040902054600114610b13576040805162461bcd60e51b81526020600482015260126024820152600080516020611a96833981519152604482015290519081900360640190fd5b6000600a55565b60056020526000908152604090205481565b600a54600114610b72576040805162461bcd60e51b815260206004820152600c60248201526b5661742f6e6f742d6c69766560a01b604482015290519081900360640190fd5b610b7a611a4c565b5060008681526003602090815260408083206001600160a01b03891684528252918290208251808401909352805483526001015490820152610bba611a66565b50600087815260026020818152604092839020835160a081018552815481526001820154928101839052928101549383019390935260038301546060830152600490920154608082015290610c49576040805162461bcd60e51b815260206004820152601060248201526f15985d0bda5b1acb5b9bdd0b5a5b9a5d60821b604482015290519081900360640190fd5b8151610c55908561198a565b82526020820151610c66908461198a565b60208301528051610c77908461198a565b81526020810151600090610c8b90856119bf565b90506000610ca1836020015185602001516119ed565b9050610caf6007548361198a565b600781905550610ceb6000861315610ce68560600151610cd7876000015188602001516119ed565b11156009546007541115611a10565b611a14565b610d33576040805162461bcd60e51b815260206004820152601460248201527315985d0bd8d95a5b1a5b99cb595e18d95959195960621b604482015290519081900360640190fd5b610d62610d4860008713156000891215611a10565b610d5a866000015186604001516119ed565b831115611a14565b610da2576040805162461bcd60e51b815260206004820152600c60248201526b5661742f6e6f742d7361666560a01b604482015290519081900360640190fd5b610dc1610db760008713156000891215611a10565b610ce68b3361192a565b610e06576040805162461bcd60e51b81526020600482015260116024820152705661742f6e6f742d616c6c6f7765642d7560781b604482015290519081900360640190fd5b610e186000871315610ce68a3361192a565b610e5d576040805162461bcd60e51b81526020600482015260116024820152702b30ba17b737ba16b0b63637bbb2b216bb60791b604482015290519081900360640190fd5b610e6f6000861215610ce6893361192a565b610eb4576040805162461bcd60e51b81526020600482015260116024820152705661742f6e6f742d616c6c6f7765642d7760781b604482015290519081900360640190fd5b610ecc84602001516000148460800151831015611a14565b610f08576040805162461bcd60e51b815260206004820152600860248201526715985d0bd91d5cdd60c21b604482015290519081900360640190fd5b60008a81526004602090815260408083206001600160a01b038c168452909152902054610f359087611a18565b60008b81526004602090815260408083206001600160a01b03808e16855290835281842094909455928a168252600590522054610f72908361198a565b6001600160a01b039788166000908152600560209081526040808320939093558c825260038082528383209c909a1682529a8b5281812086518155958b01516001968701559a8b526002808b529a8190208451815599840151948a019490945550509081015196860196909655505060608401519083015550608090910151600490910155565b3360009081526020819052604090205460011461104b576040805162461bcd60e51b81526020600482015260126024820152600080516020611a96833981519152604482015290519081900360640190fd5b60008681526003602090815260408083206001600160a01b0389168452825280832089845260029092529091208154611084908561198a565b82556001820154611095908461198a565b600183015580546110a6908461198a565b815560018101546000906110ba90856119bf565b60008a81526004602090815260408083206001600160a01b038c1684529091529020549091506110ea9086611a18565b60008a81526004602090815260408083206001600160a01b03808d1685529083528184209490945592891682526006905220546111279082611a18565b6001600160a01b03871660009081526006602052604090205560085461114d9082611a18565b600855505050505050505050565b336000908152602081905260409020546001146111ad576040805162461bcd60e51b81526020600482015260126024820152600080516020611a96833981519152604482015290519081900360640190fd5b60008381526004602090815260408083206001600160a01b03861684529091529020546111da908261198a565b60009384526004602090815260408086206001600160a01b039095168652939052919092205550565b60008581526003602090815260408083206001600160a01b03888116855290835281842090871684528184208985526002909352922082546112459086611a18565b835560018301546112569085611a18565b60018401558154611267908661198a565b82556001820154611278908561198a565b82600101819055506000611294846001015483600101546119ed565b905060006112aa846001015484600101546119ed565b90506112c86112b98a3361192a565b6112c38a3361192a565b611a10565b61130b576040805162461bcd60e51b815260206004820152600f60248201526e15985d0bdb9bdd0b585b1b1bddd959608a1b604482015290519081900360640190fd5b61131d856000015484600201546119ed565b821115611364576040805162461bcd60e51b815260206004820152601060248201526f5661742f6e6f742d736166652d73726360801b604482015290519081900360640190fd5b611376846000015484600201546119ed565b8111156113bd576040805162461bcd60e51b815260206004820152601060248201526f15985d0bdb9bdd0b5cd859994b591cdd60821b604482015290519081900360640190fd5b6113d583600401548310158660010154600014611a14565b611415576040805162461bcd60e51b815260206004820152600c60248201526b5661742f647573742d73726360a01b604482015290519081900360640190fd5b61142d83600401548210158560010154600014611a14565b61146d576040805162461bcd60e51b815260206004820152600c60248201526b15985d0bd91d5cdd0b591cdd60a21b604482015290519081900360640190fd5b50505050505050505050565b600a5481565b336000908152602081905260409020546001146114d1576040805162461bcd60e51b81526020600482015260126024820152600080516020611a96833981519152604482015290519081900360640190fd5b600a54600114611517576040805162461bcd60e51b815260206004820152600c60248201526b5661742f6e6f742d6c69766560a01b604482015290519081900360640190fd5b6001600160a01b0316600090815260208190526040812055565b3360009081526001602081815260408084206001600160a01b0395909516845293905291902055565b336000908152602081905260409020546001146115ac576040805162461bcd60e51b81526020600482015260126024820152600080516020611a96833981519152604482015290519081900360640190fd5b600a546001146115f2576040805162461bcd60e51b815260206004820152600c60248201526b5661742f6e6f742d6c69766560a01b604482015290519081900360640190fd5b6000838152600260205260409020600181015461160f908361198a565b6001820155805460009061162390846119bf565b6001600160a01b038516600090815260056020526040902054909150611649908261198a565b6001600160a01b03851660009081526005602052604090205560075461166f908261198a565b6007555050505050565b60095481565b611689833361192a565b6116cc576040805162461bcd60e51b815260206004820152600f60248201526e15985d0bdb9bdd0b585b1b1bddd959608a1b604482015290519081900360640190fd5b6001600160a01b0383166000908152600560205260409020546116ef908261196a565b6001600160a01b03808516600090815260056020526040808220939093559084168152205461171e908261197a565b6001600160a01b039092166000908152600560205260409020919091555050565b60006020819052908152604090205481565b600260208190526000918252604090912080546001820154928201546003830154600490930154919392909185565b3360009081526001602090815260408083206001600160a01b0394909416835292905290812055565b60066020526000908152604090205481565b3360009081526020819052604090205460011461180d576040805162461bcd60e51b81526020600482015260126024820152600080516020611a96833981519152604482015290519081900360640190fd5b6001600160a01b038316600090815260066020526040902054611830908261197a565b6001600160a01b03808516600090815260066020908152604080832094909455918516815260059091522054611866908261197a565b6001600160a01b03831660009081526005602052604090205560085461188c908261197a565b60085560075461189c908261197a565b600755505050565b336000818152600660205260409020546118be908361196a565b6001600160a01b0382166000908152600660209081526040808320939093556005905220546118ed908361196a565b6001600160a01b038216600090815260056020526040902055600854611913908361196a565b600855600754611923908361196a565b6007555050565b6001600160a01b03828116600081815260016020818152604080842095871680855295909152822054919361196193149114611a14565b90505b92915050565b8082038281111561196457600080fd5b8082018281101561196457600080fd5b81810160008212158061199d5750828111155b6119a657600080fd5b6000821315806119b65750828110155b61196457600080fd5b81810260008312156119d057600080fd5b8115806119b65750828282816119e257fe5b051461196457600080fd5b60008115806119b657505080820282828281611a0557fe5b041461196457600080fd5b1690565b1790565b808203600082131580611a2b5750828111155b611a3457600080fd5b6000821215806119b657508281101561196457600080fd5b604051806040016040528060008152602001600081525090565b6040518060a001604052806000815260200160008152602001600081526020016000815260200160008152509056fe5661742f6e6f742d617574686f72697a65640000000000000000000000000000a26469706673582212209837e859206fa46e4cc6e0f21af13a4fee5c0209ad4c73090929f0be2a03aae764736f6c634300060c0033",
    "linkReferences": {}
  },
  "methodIdentifiers": {
    "Line()": "babe8a3f",
    "cage()": "69245009",
    "can(address,address)": "4538c4eb",
    "dai(address)": "6c25b346",
    "debt()": "0dca59c1",
    "deny(address)": "9c52a7f1",
    "file(bytes32,bytes32,uint256)": "1a0b287e",
    "file(bytes32,uint256)": "29ae8114",
    "flux(bytes32,address,address,uint256)": "6111be2e",
    "fold(bytes32,address,int256)": "b65337df",
    "fork(bytes32,address,address,int256,int256)": "870c616d",
    "frob(bytes32,address,address,address,int256,int256)": "76088703",
    "gem(bytes32,address)": "214414d5",
    "grab(bytes32,address,address,address,int256,int256)": "7bab3f40",
    "heal(uint256)": "f37ac61c",
    "hope(address)": "a3b22fc4",
    "ilks(bytes32)": "d9638d36",
    "init(bytes32)": "3b663195",
    "live()": "957aa58c",
    "move(address,address,uint256)": "bb35783b",
    "nope(address)": "dc4d20fa",
    "rely(address)": "65fae35e",
    "sin(address)": "f059212a",
    "slip(bytes32,address,int256)": "7cdd3fde",
    "suck(address,address,uint256)": "f24e23eb",
    "urns(bytes32,address)": "2424be5c",
    "vice()": "2d61a355",
    "wards(address)": "bf353dbb"
  },
  "id": 16
}